:020000040800F2
:10000000B88D00203902000855400008574000080C
:100010005B4000085F4000086340000800000000EB
:100020000000000000000000000000006740000821
:1000300069400008000000006B4000086D400008A7
:10004000530200085302000853020008530200083C
:1000500053020008530200086B2E000853020008E8
:100060008F2F0008692F00081F2F00085302000877
:10007000530200085302000853020008530200080C
:1000800053020008530200085302000853020008FC
:1000900053020008530200085302000841380008C8
:1000A00053020008530200085302000853020008DC
:1000B000CB44000899D500085302000853020008F9
:1000C00053020008530200085302000853020008BC
:1000D00053020008E330000853020008293A0008E0
:1000E000530200085302000853020008530200089C
:1000F000530200085302000853020008530200088C
:10010000530200085302000853020008530200087B
:10011000530200085302000853020008530200086B
:10012000530200085302000853020008530200085B
:1001300000F002F800F070F80AA090E8000C824489
:100140008344AAF10107DA4501D100F065F8AFF266
:10015000090EBAE80F0013F0010F18BFFB1A43F0A5
:100160000103184764100100841001000A444FF095
:10017000000C10F8013B13F0070408BF10F8014B06
:100180001D1108BF10F8015B641E05D010F8016B4B
:10019000641E01F8016BF9D113F0080F1EBF10F8AF
:1001A000014BAD1C0C1B09D16D1E58BF01F801CBD2
:1001B000FAD505E014F8016B01F8016B6D1EF9D555
:1001C0009142D6D37047000000230024002500266A
:1001D000103A28BF78C1FBD8520728BF30C148BFAA
:1001E0000B60704766290FF00F8264290DF084843C
:1001F00078290DF0BD8473290EF0598100207047D5
:100200001FB50EF09DF90400002000210EF09AFEAB
:10021000E0601FBD10B510BD0EF092FA1146FFF759
:10022000EFFF03F06FFE0EF0B0FA03B4FFF7F2FF3A
:1002300003BC02F0F7FE0000094880470948004768
:10024000FEE7FEE7FEE7FEE7FEE7FEE7FEE7FEE786
:10025000FEE7FEE704480549054A064B70470000E3
:100260005703000831010008B8870020B88D00202E
:10027000B8890020B88900200CB5002001900090BA
:100280006C48006840F480306A49086000BF6948E3
:10029000006800F4003000900198401C0190009824
:1002A00018B90198B0F5A06FF1D16248006800F468
:1002B000003010B10120009001E000200090009873
:1002C000012843D15C48006840F010005A4908609A
:1002D0000846006820F0030008600846006840F007
:1002E0000200086053484068524948600846406828
:1002F00048600846406840F48060486008464068AE
:1003000020F47C1048600846406840F4E8104860DB
:100310000846006840F08070086000BF45480068EB
:1003200000F000700028F9D04248406820F0030037
:10033000404948600846406840F00200486000BFFD
:100340003C48406800F00C000828F9D10CBD10B5FD
:10035000FFF792FF10BD10B53648006840F001006D
:1003600034490860084640683449084031494860CB
:1003700008460068324908402E490860084600686F
:1003800020F4802008600846406820F4FE004860A1
:100390004FF41F008860FFF7DAFF4FF00060294933
:1003A000086010BD10B5002100200022214B5B68C1
:1003B00003F00C0121B1042906D0082928D107E057
:1003C000214B224C236027E01F4B204C236023E06D
:1003D000184B5B6803F47010164B5B6803F48032B3
:1003E000022303EB904022B9194B4343174C23607F
:1003F0000DE0104B5B6803F4003323B1144B43430F
:10040000124C236003E0104B4343104C236003E085
:100410000D4B0E4C236000BF00BF064B5B68C3F35F
:1004200003130C4CE15C094B1B68CB40074C236069
:1004300010BD000000100240002002400000FFF844
:10044000FFFFF6FE08ED00E000127A000000002039
:1004500000093D000400002031490143314A116088
:10046000704770B5002100230F22C47804B32D4CCF
:10047000246804F4E064C4F5E064210AC1F10403D3
:10048000CA40447804FA03F18478144021430901F6
:10049000254C0678A155047804F01F050124AC40D2
:1004A00005786D11AD0005F1E025C5F8004109E0C2
:1004B000047804F01F050124AC401C4D0678761129
:1004C00045F8264070BD1A4A0A400243154B1B1FCF
:1004D0001A60704739B1134A121D12680243114B5A
:1004E0001B1D1A6006E00F4A121D126882430D4B55
:1004F0001B1D1A607047042808D14FF0E0210969DC
:1005000041F004014FF0E022116107E04FF0E021DB
:10051000096921F004014FF0E022116170470000E9
:100520000000FA050CED00E000E400E080E100E0EE
:1005300080FFFF1F002044490860091D0860091D55
:100540000860091D086041483F4914310860704740
:1005500000213D498279002A3AD00A461268036890
:100560009A430B461A600A1D126803689A430B1DD2
:100570001A60027911440A6803681A430A60324A11
:100580000832126803689A432F4B08331A601A1D09
:10059000126803689A432C4B0C331A604279102A74
:1005A0000ED11A1F126803681A43274B08331A60CA
:1005B0001A1D126803681A43234B0C331A600DE0AE
:1005C0002149427911440A6803681A430A6005E028
:1005D000027911440A6803689A430A60704700214F
:1005E000016001710C214171002181717047164930
:1005F000103109680143144A1032116070470146F6
:100600000020114A143212680A400AB1012000E0A9
:10061000002070470C4914310860704701460020E3
:100620000022094B1B6803EA0102074B14331B68C5
:100630000B4013B10AB1012000E0002070470249CD
:10064000143108607047000000040140FFFF0F00F4
:1006500030B943F2DB028100A1F1C0410A6005E03C
:1006600043F2D2028100A1F1C0410A606FF07042F2
:10067000411C8900A1F1C0410A608100A1F1C04183
:10068000C1F80421704710280AD118214FF02042E8
:100690001166402151664FF0FC319166D16610E041
:1006A0001821F74A116040214FF02042C2F884100F
:1006B0004FF0FC31F24A083211604FF02042C2F88C
:1006C0008C1070471820EE49203108600020090680
:1006D000C1F8A4004FF0FC30E94928310860091D39
:1006E0000860091D08607047D0E901121143C26813
:1006F0001143026911434269114382691143C2697E
:100700001143026A1143426A1143826A1143C26A69
:100710001143026B114302689200A2F1C0421160C2
:10072000816808290BD101688900A1F1C0410968DD
:1007300041F0400201688900A1F1C0410A60416BAB
:100740000968426B526841EA0211426B926841EAC1
:100750000221426B928941EA0241426B128A41EACC
:100760000251426B127D41EA0261426B9269114370
:100770000268521C9200A2F1C0421160C16AB1F538
:10078000804F1BD1816B0968826B526841EA02116C
:10079000826B926841EA0221826B128A41EA02511D
:1007A000826B127D41EA0261826B92691143026899
:1007B0009200A2F1C042C2F8041107E06FF070424B
:1007C00001688900A1F1C041C1F80421704730B52A
:1007D000002100220023446844F0080485682C436B
:1007E000C5682C4305692C43456944EA452485695D
:1007F00044EA4531C4692468C5696D6844EA052442
:10080000C5692D8944EA0544C5692D7B44EA056222
:10081000046A2468056A6D6844EA0524056A2D891E
:1008200044EA0544056A2D7B44EA05630468102CFC
:1008300005D14FF020442166A266E36608E0904CA3
:1008400021604FF02044C4F888208D4C0C34236084
:1008500030BD016841F01001426841EA42218268DE
:1008600041EA4231864A20321160C1680968C26893
:10087000526841EA0221C268128941EA0241C26813
:10088000127B41EA02617E4A2832116001690968DF
:100890000269526841EA02210269128941EA024171
:1008A0000269127B41EA0261754A2C32116041698A
:1008B00009684269526841EA02214269128941EAA3
:1008C00002414269127B41EA02614FF02042C2F8C4
:1008D000B010704700210160022141600021816059
:1008E000C160016141618161C16101624FF4805168
:1008F0004162490081620021C16201630F21426BA4
:100900001160426B5160FF21426B91600F21426B7D
:10091000D160426B1161426B51610021426B916168
:100920000F21826B1160826B5160FF21826B91609D
:100930000F21826BD160826B1161826B516100214A
:10094000826B9161704710210160002141608160DC
:10095000C160016141618161FC21C2691160C269AC
:100960005160C2699160C269D160026A1160026A15
:100970005160026A9160026AD16070470021016093
:1009800041608160FC21C2681160C2685160C26828
:100990009160C268D16002691160026951600269A8
:1009A00091600269D1604269116042695160426997
:1009B00091604269D160704751B18200A2F1C0429A
:1009C000126842F001038200A2F1C042136009E004
:1009D0008200A2F1C04212682A4B1A408300A3F1A0
:1009E000C0431A60704799B1102808D14FF02042D7
:1009F000126E42F004024FF020431A661DE0204AB6
:100A0000126842F004024FF02043C3F8802014E043
:100A1000102809D14FF02042126E1A4BDB1E1A40EB
:100A20004FF020431A6608E0154A1268154BDB1E8A
:100A30001A404FF02043C3F88020704748B1104956
:100A40002031096841F004014FF02042C2F8A010A3
:100A500009E00B49203109680A4AD21E11404FF0C3
:100A60002042C2F8A0107047B9B110280CD14FF045
:100A70002042126E42F040024FF020431A661FE0FF
:100A8000800000A0FEFF0F00724A126842F0400290
:100A90004FF02043C3F8802012E0102808D14FF017
:100AA0002042126E6C4B1A404FF020431A6607E04A
:100AB000684A1268684B1A404FF02043C3F8802000
:100AC000704701460020102903D14FF02042506F9B
:100AD00002E0604A14321068704710B5F2B1102875
:100AE00007D14FF020435B6E0B434FF02044636609
:100AF00032E0B0F5807F08D1564B1B1D1B680B43BD
:100B00004FF02044C4F8843026E0524B24331B6855
:100B10000B434FF02044C4F8A4301DE0102807D147
:100B20004FF020435B6E8B434FF02044636613E02D
:100B3000B0F5807F08D1474B1B1D1B688B434FF0DE
:100B40002044C4F8843007E0424B24331B688B43B5
:100B50004FF02044C4F8A43010BD10B50246002068
:100B60000023102A03D14FF02044636E09E0B2F550
:100B7000807F03D1374C241D236802E0354C243498
:100B8000236803EA01040CB1012000E0002010BD3D
:100B9000102807D14FF02042526E8A434FF0204375
:100BA0005A6613E0B0F5807F08D12A4A121D1268F8
:100BB0008A434FF02043C3F8842007E0254A2432BB
:100BC00012688A434FF02043C3F8A420704770B5E1
:100BD00002460020002300240025102A03D14FF0F4
:100BE0002046736E09E0B2F5807F03D1194E361DA1
:100BF000336802E0174E2436336803EA010403EA3F
:100C0000D10514B10DB1012000E0002070BD102805
:100C100008D14FF02042526E22EAD1024FF0204319
:100C20005A6615E0B0F5807F09D10A4A121D126894
:100C300022EAD1024FF02043C3F8842008E0054A9D
:100C40002432126822EAD1024FF02043C3F8A420D4
:100C500070470000800000A0BFFF0F0010B50446E1
:100C6000CC48844208D10121042000F02DFB002152
:100C7000042000F029FB46E0C748844208D1012146
:100C8000082000F021FB0021082000F01DFB3AE0C5
:100C9000C248844208D10121102000F015FB002138
:100CA000102000F011FB2EE0BD48844208D1012144
:100CB000202000F009FB0021202000F005FB22E0AD
:100CC000B848844208D10121402000F0FDFA0021FB
:100CD000402000F0F9FA16E0B348844208D101211F
:100CE000802000F0F1FA0021802000F0EDFA0AE007
:100CF000AE48844207D10121801500F0E5FA0021B9
:100D0000A01500F0E1FA10BD10B50121084600F071
:100D1000DBFA0021012000F0D7FA10BD2DE9F041E7
:100D2000024600250026002000230024002791F819
:100D300003C00CF00F0591F803C00CF0100CBCF1CF
:100D4000000F03D091F802C04CEA050591F800C0ED
:100D5000BCF1000F31D0146800202BE04FF0010CE3
:100D60000CFA00F3B1F800C00CEA03069E4220D151
:100D700083004FF00F0C0CFA03F7BC4305FA03FC99
:100D80004CEA040491F803C0BCF1280F06D14FF0DF
:100D9000010C0CFA00FCC2F814C00AE091F803C080
:100DA000BCF1480F05D14FF0010C0CFA00FCC2F861
:100DB00010C0401C0828D1D31460B1F800C0BCF1A9
:100DC000FF0F34DD546800202EE000F1080C4FF0D6
:100DD000010808FA0CF3B1F800C00CEA03069E42C1
:100DE00021D183004FF00F0C0CFA03F7BC4305FA36
:100DF00003FC4CEA040491F803C0BCF1280F05D1B0
:100E000000F1080C08FA0CF8C2F8148091F803C03D
:100E1000BCF1480F07D100F1080C4FF0010808FAA7
:100E20000CF8C2F81080401C0828CED35460BDE8EE
:100E3000F0814FF6FF710180022181700421C170A1
:100E400070470246002093680B400BB1012000E080
:100E5000002070470146886880B270470246002033
:100E6000D3680B400BB1012000E000207047014621
:100E7000C86880B2704701617047416170470AB12C
:100E8000016100E041617047C16070474FF48032FA
:100E90000A43826181618261826982697047024688
:100EA0000020434B18684FF68073184040EA021048
:100EB00008433F4B186070473E49C8617047F0B522
:100EC0000A46002300240021002500F00046B6F168
:100ED000004F02D1364EF16901E0354E7168C0F322
:100EE000034583B200F44016B6F5401F08D121F047
:100EF00070612F4E766826F070662D4F7E6012E08E
:100F000000F48016B6F5801F06D1032606FA05F414
:100F1000A14341F0706106E0460D360103FA06F682
:100F2000B14341F0706122B1460D360103FA06F675
:100F3000314300F00046B6F1004F02D11C4EF16182
:100F400001E01B4E7160F0BD30B500228B071C0F15
:100F50000F2303FA04F2164B08338C1053F8243095
:100F60009343134C08348D1044F8253023468C10DD
:100F700053F824308C07240F00FA04F423430C4C5C
:100F800008348D1044F8253030BD0A49DC31086042
:100F90007047000000080140000C014000100140B3
:100FA0000014014000180140001C014000200140D5
:100FB0000000014000002042DF48006840F00100CE
:100FC000DD49086008464068DC490840DA49486065
:100FD00008460068DA490840D749086008460068B2
:100FE00020F4802008600846406820F4FE00486035
:100FF0004FF41F0088607047CF49096821F48031A1
:10100000CD4A11601146096821F480211160B0F5C4
:10101000803F03D0B0F5802F0ED106E0C6490968A5
:1010200041F48031C44A116007E0C349096841F4C2
:10103000A021C14A116000E000BF00BF704710B599
:1010400001460022002300204A11012A02D1BA4C95
:10105000236806E0022A02D1B74C236A01E0B64CAD
:10106000636A01F01F02012494401C400CB101206E
:1010700000E0002010BD38B50020009000240025BD
:1010800000BF3120FFF7DBFF05460098401C0090B1
:101090000098B0F5A06F01D0002DF2D03120FFF7FD
:1010A000CEFF08B1012400E00024204638BD0146EF
:1010B0000020A14A106820F0F80040EAC10010604A
:1010C0007047A04908607047024600209A4B586854
:1010D00020F47C1042EA01031843974B5860704794
:1010E00098490866704701460020934A506820F0EE
:1010F00003000843506070478F48406800F00C00C0
:101100007047014600208C4A506820F0F0000843E8
:101110005060704701460020874A506820F4E06024
:1011200008435060704701460020834A506820F40D
:10113000605040EAC1005060704729B17E4A527A3F
:1011400002437D4B5A7204E07B4A527A82437A4BC7
:101150005A7270477B49D8310860704701460020B9
:10116000754A506820F440400843506070470021A1
:10117000714A20321170704A82F82010012802D082
:1011800004280AD104E001216B4A2032117005E0E5
:101190000521694A2032117000E000BF00BF70478E
:1011A0006949086070476449096A0143624A1162EB
:1011B0007047654944390860704730B50021002206
:1011C000002400235C4D6D6805F00C0121B1042959
:1011D00005D0082923D105E05C4D056022E05B4D78
:1011E00005601FE0544D6D6805F47012524D6D6836
:1011F00005F48034022505EB92421CB9544D554349
:1012000005600BE04C4D6D6805F400351DB1504D87
:101210005543056002E04D4D5543056002E04B4DDE
:10122000056000BF00BF444D6D6805F0F00109097D
:10123000484D6B5C0568DD4045603F4D6D6805F4C9
:10124000E061090A434D6B5C4568DD4085603A4DBD
:101250006D6805F46051C90A3E4D6B5C4568DD4020
:10126000C560354D6D6805F44041890B3A4D6B5CA6
:10127000C568B5FBF3F5056130BD29B12E4A526949
:1012800002432D4B5A6104E02B4A526982432A4B98
:101290005A61704729B1284A92690243264B9A61E4
:1012A00004E0254A92698243234B9A61704729B131
:1012B000214AD2690243204BDA6104E01E4AD26916
:1012C00082431D4BDA61704729B11B4AD268024341
:1012D000194BDA6004E0184AD2688243164BDA6090
:1012E000704729B1144A12690243134B1A6104E092
:1012F000114A12698243104B1A61704712494039F2
:10130000086070470F49C86470470B49C87170473F
:101310000948406A40F080700749486270470146BA
:101320000020054A92680A400AB1012000E000202E
:101330007047014988727047001002400000FFF8B2
:10134000FFFFF6FE000042428004424200127A0093
:1013500000093D00140000202400002010B50446C0
:10136000FE48844208D10121C014FFF7ADFF0021DF
:10137000E014FFF7A9FFC4E0B4F1804F08D10121C8
:101380000846FFF7AEFF00210120FFF7AAFFB8E0F3
:10139000F348844208D101210220FFF7A2FF002177
:1013A0000220FFF79EFFACE0EE48844208D1012105
:1013B0000420FFF796FF00210420FFF792FFA0E032
:1013C000E948844208D101210820FFF78AFF002163
:1013D0000820FFF786FF94E0E448844208D1012109
:1013E0001020FFF77EFF00211020FFF77AFF88E032
:1013F000DF48844208D101212020FFF772FF00213D
:101400002020FFF76EFF7CE0DA48844208D10121FA
:101410004014FFF759FF00216014FFF755FF70E0FB
:10142000D548844209D10121C804FFF74DFF0021AE
:101430004FF40020FFF748FF63E0D048844209D111
:1014400001210805FFF740FF00214FF48010FFF74E
:101450003BFF56E0CA48844209D101214805FFF705
:1014600033FF00214FF40010FFF72EFF49E0C5487D
:10147000844208D101214020FFF733FF00214020A2
:10148000FFF72FFF3DE0C048844208D101218020B2
:10149000FFF727FF00218020FFF723FF31E0BB4843
:1014A000844208D101218015FFF71BFF0021A01500
:1014B000FFF717FF25E0B648844209D1012108044F
:1014C000FFF702FF00214FF48030FFF7FDFE18E028
:1014D000B048844209D101214804FFF7F5FE0021FC
:1014E0004FF40030FFF7F0FE0BE0AB48844208D128
:1014F00001218804FFF7E8FE00214FF48020FFF768
:10150000E3FE10BD00220288944B98420ED0994B06
:1015100098420BD0B0F1804F08D0914B984205D043
:10152000904B984202D0904B984204D14FF68F7363
:101530001A404B881A438D4B984207D08C4B9842E7
:1015400004D04FF6FF431A40CB881A4302808B88A1
:1015500083850B880385814B98420BD0854B98423D
:1015600008D08B4B984205D08A4B984202D08A4BC8
:10157000984201D10B7A038601238382704770B5AC
:10158000002400220023058C4FF6FE7635400584AA
:10159000028C8388048B4FF68F752C40B51E2C402F
:1015A0000D882C43751E2A400D892A434D882A43F5
:1015B0006A4DA8420BD06F4DA84208D0744DA84286
:1015C00005D0744DA84202D0734DA84213D14FF6F6
:1015D000F7752A404D892A434FF6FB752A408D88BE
:1015E0002A434FF6FF652B404FF6FF552B408D8960
:1015F0002B43CD892B4383800483CD888586028449
:1016000070BD70B5002400220023058C4FF6EF76E4
:1016100035400584028C8388048B48F6FF752C4086
:101620004FF6FF452C400D884FF6FF7606EA05255C
:101630002C434FF6DF752A400D8906EA05152A432B
:101640004D8806EA05152A43444DA84202D0494D6B
:10165000A8421DD14FF67F752A404D894FF6FF767F
:1016600006EA05152A434FF6BF752A408D8806EA1B
:1016700005152A434FF6FF352B404FF2FF752B40DF
:101680008D8906EA85052B43CD8906EA85052B431E
:1016900083800483CD880587028470BD70B50024E3
:1016A00000220023058C4FF6FF6635400584028C2E
:1016B0008388848B4FF68F752C404FF6FC752C4039
:1016C0000D882C434FF6FF552A400D894FF6FF76C3
:1016D00006EA05252A434D8806EA05252A431F4DBB
:1016E000A84202D0234DA8421DD14FF2FF752A40D7
:1016F0004D894FF6FF7606EA05252A434FF6FF355A
:101700002A408D8806EA05252A434EF6FF752B40B0
:101710004DF6FF752B408D8906EA05152B43CD89C3
:1017200006EA05152B4383808483CD888587028450
:1017300070BD70B5002200230024058C4EF6FF76A4
:1017400035400584038C8488828B48F6FF752A40D7
:101750004FF6FF452A400D8820E00000002C014094
:101760000004004000080040000C00400010004051
:101770000014004000340140004C01400050014082
:101780000054014000180040001C004000200040B0
:101790000040014000440140004801404FF6FF7600
:1017A00006EA05252A434DF6FF752B400D8906EA0A
:1017B00005352B434D8806EA05352B43FA4DA842E3
:1017C00002D0FA4DA84208D14BF6FF752C408D8906
:1017D0004FF6FF7606EA85152C4384808283CD88F8
:1017E000A0F84050038470BD828B4FF2FF331A4043
:1017F0008283828B4FF6FF7303EA01231A438283AD
:101800007047F0B50C461546002200210026078CD3
:101810004EF6FF7C07EA0C070784828B018C4FF69B
:10182000FF7707EA043640F6FF473A404FF6FF7766
:1018300007EA05273A434FF6FF7707EA03373A43AB
:10184000D94FB8420ED0D94FB8420BD0B0F1804F2B
:1018500008D0D74FB84205D0D64FB84202D0D64FA5
:10186000B84206D14DF6FF77394046F480573943E8
:1018700005E047F6FF57394044F4805739438283E7
:101880000184F0BD828B4FF6F3731A408283828B02
:101890000A4382837047F0B50C46154600220021AA
:1018A0000026078C4FF6FF6C07EA0C070784828B33
:1018B000018C4FF6FF7707EA04264FF60C773A4083
:1018C0004FF6FF7707EA03172F433A43B64FB84264
:1018D0000ED0B64FB8420BD0B0F1804F08D0B44F05
:1018E000B84205D0B34FB84202D0B34FB84206D188
:1018F0004FF6FF57394046F48077394305E04FF201
:10190000FF57394044F48077394382830184F0BD26
:10191000028B4FF2FF331A400283028B4FF6FF73A4
:1019200003EA01231A4302837047F0B50C461546BB
:10193000002200210026078C4FF6EF7C07EA0C07F7
:101940000784028B018C4FF6FF7707EA041640F6F6
:10195000FF473A404FF6FF7707EA03373A434FF61F
:10196000FF7707EA05273A438F4FB8420ED08F4FD3
:10197000B8420BD0B0F1804F08D08D4FB84205D09F
:101980008C4FB84202D08C4FB84206D14FF6DF7769
:10199000394046F01007394305E04FF65F7739408C
:1019A00044F01007394302830184F0BD028B4FF6E7
:1019B000F3731A400283028B0A4302837047F0B527
:1019C0000C46154600220021068C4FF6FE773E405D
:1019D0000684028B018C4FF60C7632407E1C06EAA0
:1019E00003162E433243704EB0420ED06F4EB042BB
:1019F0000BD0B0F1804F08D06D4EB04205D06D4E87
:101A0000B04202D06C4EB04206D14FF6FD76314066
:101A100044F00106314305E04FF6F576314044F0DD
:101A20000106314302830184F0BD70B505460C46C2
:101A30005D4885420ED05D4885420BD0B5F1804FA0
:101A400008D05B48854205D05A48854202D05A48A2
:101A5000854200D100E000BF208850B92389A288C8
:101A600061882846FFF7ABFFE1882846FFF79EFF15
:101A700025E0208804280AD12389A2886188284685
:101A8000FFF753FFE1882846FFF742FF17E0208861
:101A900008280AD12389A28861882846FFF7FBFE1F
:101AA000E1882846FFF7EEFE09E02389A2886188D5
:101AB0002846FFF7A6FEE1882846FFF795FE70BD91
:101AC0002DE9F04105460C4600260127608808B93B
:101AD000022600E00026A088012801D1022700E0AC
:101AE00001272088A0B92389A28861882846FFF7AA
:101AF00066FFE1882846FFF759FF23893A463146B9
:101B00002846FFF712FFE1882846FFF701FF13E0A0
:101B10002389A28861882846FFF707FFE1882846C5
:101B2000FFF7F6FE23893A4631462846FFF747FF7E
:101B3000E1882846FFF73AFFBDE8F0810A884B8824
:101B40001A438B881A43CB881A430B891A434B8953
:101B50001A438B891A43A0F8442070474FF6FF714F
:101B6000818000210180C180418001727047002185
:101B7000018041808180C180018141818181C18159
:101B80007047002101804180012181800021C180B6
:101B9000018170470021018041808180C1800181E5
:101BA0004181818170470000002C014000340140D8
:101BB0000004004000080040000C004021B10288F1
:101BC00042F00102028004E002884FF6FE731A40E0
:101BD0000280704731B1B0F8442042F40042A0F8CE
:101BE000442005E0B0F84420C2F30E02A0F84420DF
:101BF00070471AB183890B43838102E083898B4349
:101C0000838170478182704741EA0203A0F848301F
:101C100070471AB183890B43838102E083898B4328
:101C20008381704701894FF6F87211400181704736
:101C30000A46002101894FF68F7319401143018133
:101C4000704730B504460D4629462046FFF7F0FFA1
:101C5000208940F00700208130BD2DE9F041044685
:101C60000D4616461F46602D06D13B4601223146E1
:101C70002046FFF75AFE05E03B460122314620464A
:101C8000FFF79DFE29462046FFF7D2FF208940F04E
:101C900007002081BDE8F08130B50C4600210189A4
:101CA000C9B24FF6FF7505EA0325154325432943BD
:101CB000018130BD2DE9F04105460E461746984694
:101CC000002443463A4631462846FFF7E5FF2C8973
:101CD0004FF6F870044044F007044FF68F7004404C
:101CE00044F070042C81BDE8F081F0B504460D4647
:101CF00016461F463B46324629462046FFF7CCFF94
:101D0000208940F480402081F0BD018582827047A7
:101D10000A46002101884FF68F7319401143018054
:101D20007047F0B50C4615461E46002100220023E0
:101D30000189028B038C4FF6F877394021434FF627
:101D4000FC473A4040F201173A434FF6DD773B40FB
:101D50004FF6FF7707EA06172F433B4301810283C3
:101D60000384F0BD0A460021018B4FF68F731940A2
:101D70001143018370470A460021018B48F6FF7327
:101D800019404FF6FF7303EA02231943018370479A
:101D90000A460021818B4FF68F73194011438183CE
:101DA00070470A460021818B48F6FF7319404FF6B1
:101DB000FF7303EA022319438183704721B102882C
:101DC00042F08002028004E002884FF67F731A40DE
:101DD0000280704721B1828842F00402828004E0D0
:101DE00082884FF6FB731A408280704721B1828847
:101DF00042F00802828004E082884FF6F7731A40AE
:101E00008280704721B1828842F00102828004E022
:101E100082884FF6FE731A40828070470A4600217E
:101E2000018B4FF6F77319401143018370470A463F
:101E30000021018B4FF2FF7319404FF6FF7303EA45
:101E400002231943018370470A460021818B4FF614
:101E5000F77319401143818370470A460021818B33
:101E60004FF2FF7319404FF6FF7303EA0223194341
:101E7000818370470A460021018B4FF6FB7319409E
:101E80001143018370470A460021018B4FF6FF334F
:101E900019404FF6FF7303EA022319430183704789
:101EA0000A460021818B4FF6FB7319401143818351
:101EB00070470A460021818B4FF6FF3319404FF6D9
:101EC000FF7303EA02231943818370470A46002106
:101ED000018B4FF67F7319401143018370470A4607
:101EE0000021018BC1F30E014FF6FF7303EA0223B9
:101EF0001943018370470A460021818B4FF67F7397
:101F000019401143818370470A460021818BC1F338
:101F10000E014FF6FF7303EA0223194381837047D2
:101F20000A460021018C4FF6FD73194011430184CC
:101F300070470A460021018C4FF6F7731940114390
:101F4000018470470A460021018C4FF6DF73194067
:101F50004FF6FF7303EA02131943018470470A46E0
:101F60000021018C4FF67F7319404FF6FF7303EA8F
:101F700002131943018470470A460021018C4FF671
:101F8000FF5319404FF6FF7303EA022319430184FC
:101F900070470A460021018C4FF2FF7319404FF63B
:101FA000FF7303EA02231943018470470A460021A4
:101FB000018C4DF6FF7319404FF6FF7303EA0233AD
:101FC00019430184704730B5002301248C40A3B22B
:101FD000048C9C430484048C02FA01F5ADB22C43BA
:101FE000048430BD30B5002304248C40A3B2048C9B
:101FF0009C430484048C02FA01F5ADB22C430484A2
:1020000030BD70B503460020002418461830012565
:102010008D40ACB21D8CA5431D8409B1082909D19E
:1020200000EB6100056825F0700505600568154343
:1020300005600EE00D1FC5F34E052844056825F424
:10204000E045056005684FF6FF7606EA022635434F
:10205000056070BD21B1028842F00202028004E0F6
:1020600002884FF6FD731A400280704721B1028842
:1020700042F00402028004E002884FF6FB731A402B
:102080000280704721B1828842F08002828004E0A1
:1020900082884FF67F731A408280704702884FF61D
:1020A000F7731A40028002880A43028070478288D0
:1020B0004FF68F731A40828082880A43828070476D
:1020C00002894FF6F8731A40028102890A4302819D
:1020D000704702894FF67F731A40028102890A43D2
:1020E000028170478184704781857047818670477F
:1020F0000187704781877047A0F8401070470288B9
:102100004FF6FF431A40028002880A43028070475C
:102110000146888E70470146088F70470146888FB8
:1021200070470146B1F8400070470146888C7047FF
:102130000146088D704702460020138A0B400BB100
:10214000012000E000207047CA430282704730B58A
:102150000246002000230024158A05EA0103958920
:1021600005EA010413B10CB1012000E0002030BDEC
:10217000CA4302827047000010B50446FB488442FF
:1021800009D101218803FFF79FF800214FF4804017
:10219000FFF79AF832E0F648844209D10121480459
:1021A000FFF79FF800214FF40030FFF79AF825E081
:1021B000F048844209D101218804FFF792F80021F8
:1021C0004FF48020FFF78DF818E0EB48844209D1E6
:1021D0000121C804FFF785F800214FF40020FFF724
:1021E00080F80BE0E548844208D101210805FFF79B
:1021F00078F800214FF48010FFF773F810BD2DE937
:10220000F04786B005460E460024A24600BFA14610
:102210000027B08900B100BF2F462C8A4CF6FF7012
:102220000440F08804432C82AC894EF6F31004403D
:10223000B08831890843718908430443AC81AC8A72
:102240004FF6FF400440B0890443AC8201A8FEF77A
:10225000B4FFC648874202D1DDF810A001E0DDF8E6
:102260000CA0A88900F4004040B10AEBCA0000EBC2
:102270000A1031684900B0FBF1F807E00AEBCA0028
:1022800000EB0A1031688900B0FBF1F86420B8FB5C
:10229000F0F004012009642101FB1089A88900F4F1
:1022A000004040B1322000EBC900B0FBF1F000F07B
:1022B0000700044308E0322000EB09106421B0FB62
:1022C000F1F000F00F0004432C8106B0BDE8F08768
:1022D0004FF41651016000218180C18001810C21E1
:1022E000418100218181704710B502460020108A8B
:1022F0004FF2FF0318400B884C8823438C882343FC
:10230000CC8823431843108210BD002101804180F6
:102310008180C180704721B1828942F4005282815C
:1023200004E082894DF6FF731A4082817047F0B550
:102330000346002400260025002040F66A17B94213
:1023400000D100BF1846C1F3421401F01F06012757
:1023500007FA06F5012C01D10C3004E0022C01D162
:10236000103000E014301AB107682F43076002E014
:102370000768AF430760F0BD1AB1838A0B438382BD
:1023800002E0838A8B4383827047028A4FF6F073A0
:102390001A400282028A0A430282704782894FF2FF
:1023A000FF731A40828182890A438281704721B17A
:1023B000828942F00202828104E082894FF6FD7335
:1023C0001A4082817047028A4FF6DF731A400282F8
:1023D000028A0A430282704721B1028A42F4804293
:1023E000028204E0028A4BF6FF731A4002827047B1
:1023F000C1F308028280704701468888C0F3080054
:102400007047818941F0010181817047028BD2B20E
:102410000283028B42EA012202837047028B02F49C
:102420007F420283028B0A430283704721B1828A72
:1024300042F02002828204E0828A4FF6DF731A4063
:102440008282704721B1828A42F01002828204E0C7
:10245000828A4FF6EF731A408282704721B1828AD6
:1024600042F00802828204E0828A4FF6F7731A4033
:102470008282704721B1828942F40042828103E066
:102480008289C2F30E028281704721B1828A42F4AE
:102490000062828204E0828A4FF2FF731A408282D5
:1024A0007047828A4FF6FB731A408282828A0A43FF
:1024B0008282704721B1828A42F00202828204E065
:1024C000828A4FF6FD731A408282704702460020CE
:1024D000B1F5007F00D100BF13880B400BB1012084
:1024E00000E00020704701F40072B2F5007F00D1D7
:1024F00000BFCA430280704770B502460024002323
:102500000025002040F66A16B14200D100BFC1F399
:10251000421501F01F03012606FA03F3012D02D133
:102520009689334006E0022D02D1168A334001E03D
:10253000968A33400C12012606FA04F416883440B9
:1025400013B10CB1012000E0002070BD10B50022D5
:10255000002340F66A14A14200D100BF0A120124F0
:102560009440A3B2DC43048010BD00000038014059
:102570000044004000480040004C00400050004033
:1025800008B501214820FEF785FE2020ADF80000A7
:1025900010208DF8030003208DF8020069460C48D6
:1025A000FEF7BCFB20210A48FEF765FC2020ADF8B1
:1025B000000010208DF8030003208DF8020069460A
:1025C0000448FEF7ABFB20210248FEF754FC08BD8F
:1025D000000C01400018014000B597B001214FF4F4
:1025E000F070FEF757FE01210802FEF746FE1820A4
:1025F0008DF85B0003208DF85A004FF63370ADF86C
:10260000580016A93748FEF789FB4FF68370ADF8DE
:10261000580016A93448FEF781FB4FF23F00ADF891
:10262000580016A93148FEF779FB40F23F40ADF85B
:10263000580016A92E48FEF771FB00200690019065
:1026400000900390049005900320029004200790CE
:1026500000200890099010200A9000200B900D9007
:102660000C900E900F904FF480501090002011901D
:1026700012901390CDF850D0CDF854D007A8FEF7A3
:1026800033F801210420FEF797F917B000BD10B50B
:1026900006E004784FF0D0435C54401C491C521EA5
:1026A000002AF6D110BD10B505E04FF0D0435B5CB9
:1026B0000370401C491C1300A2F10102F5D110BDAA
:1026C00013B50C46012221466846FFF7E0FF1CBD0A
:1026D00018B50446012221466846FFF7E4FF9DF83D
:1026E000000018BD0014014000180140001C01400A
:1026F0000020014070B504460E4626B10221FA487A
:10270000FEF7B9FB03E00221F748FEF7B6FB08210C
:10271000F548FEF7B2FB002519E04021F348FEF72B
:10272000ACFB04F0800028B14FF48041F048FEF784
:10273000A2FB04E04FF48041ED48FEF79EFB4021F0
:10274000EA48FEF798FB6006040E681CC5B2082D27
:10275000E3DB0821E448FEF78EFB0221E248FEF7A6
:102760008AFB70BD70B500241CE004F1B001C8B252
:102770000021FFF7BFFF00210846FFF7BBFF002144
:102780001020FFF7B7FF002508E0DA4901EBC5018B
:10279000085D0121FFF7AEFF681CC5B2802DF4DB98
:1027A000601CC4B2082CE0DB70BD70B500240CE0E6
:1027B000002506E00020CF4901EBC4014855681C04
:1027C000C5B2082DF6DB601CC4B2802CF0DBFFF72D
:1027D000C9FF70BD08B501214FF49870FEF75AFD8E
:1027E00010208DF803000A20ADF8000003208DF8BA
:1027F00002006946BC48FEF791FA4020ADF800009F
:102800006946BA48FEF78AFA4FF44040ADF8000036
:102810006946B748FEF782FA0A21B348FEF72BFB58
:102820004021B248FEF727FB4FF44041B048FEF785
:1028300022FB4FF40041AE48FEF71FFB642001F07D
:1028400050FC4FF40041AA48FEF715FB642001F04C
:1028500048FC0021AE20FFF74DFF0021D520FFF7F7
:1028600049FF00215020FFF745FF0021A820FFF776
:1028700041FF00213F20FFF73DFF0021D320FFF75C
:1028800039FF00210846FFF735FF00214020FFF700
:1028900031FF00218D20FFF72DFF00211420FFF7CD
:1028A00029FF00212020FFF725FF00210220FFF74C
:1028B00021FF0021A120FFF71DFF0021C020FFF70D
:1028C00019FF0021DA20FFF715FF00211220FFF782
:1028D00011FF00218120FFF70DFF0021EF20FFF7FE
:1028E00009FF0021D920FFF705FF0021F120FFF7A4
:1028F00001FF0021DB20FFF7FDFE00213020FFF764
:10290000F9FE0021A420FFF7F5FE0021A620FFF725
:10291000F1FE0021AF20FFF7EDFEFFF746FF08BDF7
:1029200010B500218D20FFF7E5FE00211420FFF7F0
:10293000E1FE0021AF20FFF7DDFE10BD10B5002144
:102940008D20FFF7D7FE00211020FFF7D3FE0021D6
:10295000AF20FFF7CFFE10BDF0B515467F2801DC94
:102960003F2900DDF0BD0C46CE1701EB5676F61080
:10297000C6F10706F2B2CE1701EB5676F610A1EBC0
:10298000C606C6F107070126BE40F3B24DB1594C49
:1029900004EBC004A45C1C43564E06EBC006B454C2
:1029A00008E0544C04EBC004A45C9C43514E06EB7D
:1029B000C006B45400BFD5E72DE9F04705460E46E2
:1029C00017469846DDF820A0BD4201DC464501DDF2
:1029D000BDE8F0872C460EE0B14608E05246494675
:1029E0002046FFF7B9FF09F1010000F0FF09C145DA
:1029F000F4DD601CC4B2BC42EEDDFFF7B3FE00BFE5
:102A0000E6E72DE9FF4F81B080460E461C460E9F3B
:102A1000B3462046E31704EB5373DB1021464FEA1D
:102A2000E47C04EB5C7C4FEAEC0CA4EBCC0CBCF13A
:102A3000000F02D04FF0010C01E04FF0000C634496
:102A4000224604EBD27C4FEA6C0C03FB0CF3DBB2A6
:102A50000093A7F12000C7B200255DE00C2C07D140
:102A600007EB4700244901EB800010F8059014E0C3
:102A7000102C05D1214800EB071010F805900CE050
:102A8000182C07D107EBC7001D4901EB800010F897
:102A9000059002E005B0BDE8F08F4FF0000A35E088
:102AA00009F0800028B131464046039AFFF754FFF1
:102AB00009E0039808B9012000E0002002463146F1
:102AC0004046FFF749FF4FEA49604FEA1069701C22
:102AD000C6B2A6EB0B00A04214D15E4608F101007D
:102AE00000F0FF0815E00000001001400014014054
:102AF000002001403C0100200CF6000880FA00088C
:102B0000700001080AF1010000F0FF0ABAF1080F95
:102B1000C6DB00BF681CC5B2009885429EDB00BFC3
:102B2000B8E72DE9F84306460F4690461C46089D37
:102B300020E004EBD4714910C1F18001B14202DA06
:102B40003819C7B20026C4F14000B84203DA0026A3
:102B50000027FFF72AFE2878234642463946009090
:102B60003046FFF74EFF204604EBD07106EB6101C3
:102B7000CEB26D1C2878202802DB28787E28D8DD8C
:102B8000BDE8F88310B50246012000E050430B0079
:102B9000A1F10104E1B2F9D110BD2DE9FF4F82B0DE
:102BA000064689461D46DDE90F7A00200190002483
:102BB00038E0381B401EC1B20A20FFF7E3FFBAFB22
:102BC000F0F00A21B0FBF1F201FB12080198B0B954
:102BD000781EA04213DDB8F1000F0ED12020AB46C5
:102BE00005EBDB71491001FB04610090C8B22B4674
:102BF0004946049AFFF705FF12E00120019008F111
:102C00003000C0B2AB4605EBDB71491001FB04613B
:102C10000090C8B22B464946049AFFF7F2FE00BF67
:102C2000601CC4B2BC42C4DB06B0BDE8F08F2DE925
:102C3000F04F06460C4617469846A2464FF0000B4A
:102C4000002531E04A4800EB481010F805B04FF07D
:102C5000000923E00BF0800028B13A4621463046B7
:102C6000FFF77AFE08E00FB9012000E000200246DD
:102C700021463046FFF770FE4FEA4B604FEA106B7B
:102C8000601CC4B2A4EB0A00102803D15446701C87
:102C9000C6B206E009F1010000F0FF09B9F1080F22
:102CA000D8DB00BF681CC5B2202DCBDBBDE8F08FA0
:102CB0002DE9FC4F05460C4616461F46DDF82CA0B4
:102CC000002001900095B54201DCBC4201DDBDE869
:102CD000FC8F391BCA1701EB5272D210381BC31775
:102CE00000EB5373DB10A0EBC3030BB1012300E037
:102CF00000231A44731B02FB03FB4FF0000833E070
:102D00000C9810F8080001904FF000091FE001989E
:102D100000F0010038B104EB0900C1B25246284668
:102D2000FFF71AFE0CE0BAF1000F01D1012000E01C
:102D30000020024604EB0900C1B22846FFF70CFE52
:102D400001984010019009F1010000F0FF09B9F16C
:102D5000080FDCDB681CC5B2B54203D1009D04F14D
:102D60000800C4B208F10108D845C9D300BFAEE7D6
:102D7000CC0D01081FB501210846FEF78BFA012092
:102D80008DF8060000208DF8040008208DF805005D
:102D900001208DF80B0002208DF80900012144204C
:102DA000FEF778FA48208DF80F0003208DF80E000A
:102DB0001C20ADF80C0003A98048FDF7AFFF2820C8
:102DC0008DF80F000120ADF80C0003A97C48FDF739
:102DD000A5FF04210846FEF7B7F8102000906846CA
:102DE000FDF7B6FB0A208DF8080001208DF80A00D7
:102DF00002A8FDF736FB03210420FEF7A5F8082002
:102E000000906846FDF7A4FB09208DF80800022019
:102E10008DF80A0002A8FDF724FB02210420FEF72A
:102E200093F8042000906846FDF792FB08208DF887
:102E3000080002208DF80A0002A8FDF712FB00210D
:102E40000846FEF781F8012000900C208DF805005F
:102E50006846FDF77DFB06208DF8080003208DF8FD
:102E60000A0002A8FDF7FDFA1FBD10B51E2001F0F3
:102E700038F954480068012808D101218007FEF77D
:102E80009DFE5148006808B90AF063FD0120FDF776
:102E9000D6FB10BD10B588B0044600203F237F222A
:102EA00010210090FFF788FD14B1012C33D11AE0F6
:102EB00046A010230122194600900020FFF731FEA2
:102EC00046A010230122202100900020FFF729FEB8
:102ED00046A010230122302100900020FFF721FEA0
:102EE000FFF740FC18E04548C07844498978CDE9AF
:102EF000001042484378027841A102A80AF098FDE8
:102F000002A80C230122142100900020FFF709FEE3
:102F1000FFF728FC00E000BF00BF08B010BD10B5EF
:102F20001E2001F0DEF83B480068C8B93A48007836
:102F3000401C3949087008460078012802D1002059
:102F40003649087034480078022805D101203349F9
:102F5000087000203049087030480078FFF79AFF69
:102F60001020FDF76CFB10BD10B5142001F0B9F86E
:102F70002848001F0068012805D12948007820F062
:102F80001000274908700820FDF759FB10BD10B547
:102F9000142001F0A6F81F4808380068012809D15C
:102FA0001C488430006808B9012000E0002019495D
:102FB000843108600420FDF742FB10BD0018014079
:102FC000000801400001214238010020434F323AFD
:102FD0002020202020202070706D000054656D702E
:102FE0003A202020202020432000000048756D3A20
:102FF000202020202020202520000000300100205B
:103000004C6F63616C49503A25642E25642E25640B
:103010002E256400100123422800002035000020E6
:1030200034010020014600BF704770B504460D46CC
:10303000E1B24A48FFF7DCF900BF80214748FFF7BB
:1030400045FA0028F9D0204670BD10B586B0044678
:10305000012144F20400FEF71DF904208DF8170049
:103060000002ADF8140003208DF8160005A93C48B5
:10307000FDF754FE4FF40070ADF8140018208DF8E1
:10308000170005A93648FDF749FE01940020ADF868
:1030900010000C20ADF80E000020ADF80C00ADF8CB
:1030A0000A00ADF8080001A92C48FFF7A8F8012193
:1030B0002A48FFF730F925208DF8000001208DF80F
:1030C00003008DF8010000208DF802006846FDF72E
:1030D000C8F9012240F225512048FFF728F906B02F
:1030E00010BD10B540F225511C48FFF705FA10B38A
:1030F0001A48FFF781F9C4B21A48008800F400406A
:10310000C8B91848008800F4804060B10A2C06D184
:103110001448008840F40040124908801DE0002057
:103120001049088019E00D2C06D10E48008840F4A3
:1031300080400C49088010E00A480088C0F30D0068
:1031400009490C5407480088401C06490880084675
:103150000088C72801DD0020088010BD003801402C
:10316000000801402C0000203C050020FE4A108091
:103170004FF0C842A2F8001170470146FA4801809A
:103180004FF0C840B0F80001704770B5044644F0F5
:1031900040010C20FFF7EAFF0C210B20FFF7E6FFB0
:1031A0000A2000F09EFF00210B20FFF7DFFF0D201B
:1031B000FFF7E3FF02460E20FFF7DFFF42EA0020A1
:1031C00085B2284670BD70B50024E848007808280C
:1031D00011D108E0642000F084FF601CC4B2642CAC
:1031E00001DDFF2070BD0120FFF7CFFF00F02000C0
:1031F0000028EFD010E008E0642000F072FF601CAF
:10320000C4B2642C01DDFF20ECE70120FFF7B5FF1D
:1032100000F040000028EFD00120FFF7AEFF0221B0
:1032200001EAA0150020FFF7A8FFC0F3C000054386
:103230002846D7E710B50446002306E0E15C03F119
:103240001600FFF793FF581CC3B2082BF6DB10BD26
:1032500010B50446002306E0E15C03F11000FFF71F
:1032600085FF581CC3B2062BF6DB10BD70B50546B2
:103270000C4645F040010C20FFF778FFE1B20D202D
:10328000FFF774FF210A0E20FFF770FF0A210B20C1
:10329000FFF76CFF322000F024FF00210B20FFF726
:1032A00065FF70BD70B50646092E1BD2DFE806F03B
:1032B000050C1A1A08101A1A15000024212511E00D
:1032C0004FF4807441250DE04FF40054812509E04E
:1032D0004FF4045440F2011504E04FF4805440F2DE
:1032E000E11500BF00BF21460020FFF7BFFF2946C0
:1032F0000420FFF7BBFF00211F20FFF737FF70BD41
:1033000000B52820FFF739FF02462920FFF735FFD7
:1033100042EA00222A20FFF730FF42EA00422B2037
:10332000FFF72BFF42EA0062104600BD10B50020F7
:103330008F4908600A2000F0D4FE01208D49C1F8B1
:103340009C01642000F0CDFE01211E20FFF70EFF3E
:1033500000211F20FFF70AFF03210020FFF706FFCF
:1033600000BF192000F0BDFE0020FFF706FF00F0AF
:1033700001000028F5D100210846FFF7F7FE0321E0
:103380000020FFF7F3FE00BF192000F0AAFE002086
:10339000FFF7F3FE00F001000028F5D110BD10B5D5
:1033A0009AB001214FF4F070FDF774FF0121084637
:1033B000FDF770FF01210802FDF75FFF8020ADF8E7
:1033C000640003208DF8660010208DF8670019A9AD
:1033D0006948FDF7A3FC4020ADF8640048208DF853
:1033E000670019A96548FDF799FC4CF23370ADF8F8
:1033F000640018208DF8670019A95F48FDF78EFC5E
:103400004FF68070ADF8640018208DF8670019A998
:103410005B48FDF783FC4FF40050ADF8640019A938
:103420005848FDF77BFC4FF40070ADF8640019A913
:103430005248FDF773FC06210846FDF785FD402044
:10344000179000208DF8600001208DF862000C209C
:103450008DF8610017A8FDF77BF84020FDF7EFF825
:1034600017208DF8580001208DF85B008DF8590069
:1034700000208DF85A0016A8FCF7F3FF00200090FA
:103480000190032002900020039004900590069084
:103490000220079000200890099010200A90002038
:1034A0000B900C900D900E900F904FF48050109058
:1034B0000020119012901390CDF850D0CDF854D038
:1034C00007A8FDF711F901210220FDF775FA2E4832
:1034D0000468082025490870002048808120487031
:1034E000022008710021214841718171210CC171B4
:1034F000210A01724472FF201C498872FF211B4877
:10350000C172017341738173C17301744174FFF718
:103510000DFF642000F0E5FDFFF7F2FE04462146B2
:103520001AA00AF079FA1D48844202D001201AB08C
:1035300010BD0E490878FFF7B5FE00210846FFF7D9
:1035400015FE00210220FFF711FE3F210820FFF7A2
:103550000DFE38210920FFF709FE00210A20FFF7A0
:1035600005FE00212F201BE0FE0000640406002061
:103570009C81224200802242001401400020014030
:1035800000180140001C0140E8F7FF1F444D39308E
:1035900030302049443A2523780D0A00460A00902D
:1035A000FFF7E4FD2C210120FFF7E0FD0F21FE20B5
:1035B000FFF7DCFD80212D20FFF7D8FDA648FFF79F
:1035C00047FEA548801DFFF735FE31210520FFF796
:1035D000CDFD8021FF20FFF7C9FDFFF7F4FD044674
:1035E000FF2C11D004F0010008B19CA000E09DA0C8
:1035F000024604F0020008B10A2000E064200146FF
:103600009AA00AF009FA02E0A3A00AF005FA92488B
:10361000001F4178FF20FFF7A9FD002087E778B55C
:1036200003460024002600258021FF20FFF79EFD91
:10363000F820A14908801C461BE06089B04216DDD5
:103640003046711C8EB26268125C2846691CCDB28D
:103650000DF80020022D0CD19DF800009DF80110FE
:1036600040EA01209449891C0880002501E0246873
:103670000026002CE1D1012D04D19DF800008E49D7
:10368000891C0880197AFC20FFF770FD1889010A4F
:10369000FD20FFF76BFD01210220FFF767FD00BF52
:1036A000FE20FFF76AFD00F002000028F8D002219A
:1036B000FE20FFF75BFD6848001F4178FF20FFF701
:1036C00055FD78BD2DE9FE430024002500BFF02004
:1036D000FFF753FD7848801C0088C7B2002F7DD0CB
:1036E000012F0DD975A00AF097F900210520FFF7E9
:1036F0003DFD8021FE20FFF739FD2046BDE8FE8319
:10370000F2206D4908804FF0C840B0F800010290E7
:10371000881C008801900322BDF80410104601F0B7
:10372000ABFD0446A4B125460FE0D5F804806E89B0
:1037300008E04FF0C840B0F80001A8F80000B61E3D
:1037400008F10208002EF4DC2D68002DEDD111E007
:10375000BDF8041062A00AF05FF9E846BDF8046005
:1037600006E04FF0C840B0F80001A8F80000B61E0F
:10377000002EF6D1BDF8080000F43F4040B9BDF876
:103780000400402804DBBDF80400B0F5C06F40DD44
:10379000BDF8081058A00AF03FF9BDF8080000F481
:1037A000807010B158A00AF037F9BDF8080000F495
:1037B000007010B158A00AF02FF9BDF8080000F40D
:1037C000004010B158A00AF027F9BDF80400B0F588
:1037D000C06F0BDD59A00AF01FF900E00CE00121D9
:1037E0000020FFF7C3FC052000F07BFC14B120464D
:1037F00001F0C0FC00246AE70221FE20FFF7B6FCBE
:1038000081201549091F487008464178FF20FFF7BD
:10381000ADFC204672E710B527480488FE20FFF76C
:10382000ACFC03461946FE20FFF7A0FC03F00400A1
:1038300018B103F0080000B100BF1F48048010BD9C
:1038400010B54020FCF7FBFE01E0FFF7E4FF404825
:1038500000680028F9D010BD0806002046756C6C81
:103860000000000048616C6600000000444D3930E3
:1038700030302053706565643A25644D6270732C56
:103880004475706C65783A2573206475706C657842
:10389000206D6F64650D0A00444D3930303020458D
:1038A000737461626C697368204C696E6B20466149
:1038B000696C6564210D0A00FE000064646D393096
:1038C00030302072783A207278206572726F722CD4
:1038D0002073746F70206465766963650D0A00005B
:1038E00070627566C4DAB4E6C9EAC7EBCAA7B0DC91
:1038F0003A25640D0A00000072785F737461747574
:10390000733A2523780D0A007278206669666F2065
:103910006572726F720D0A0072782063726320659F
:1039200072726F720D0A00007278206C656E677497
:1039300068206572726F720D0A0000007278206C48
:10394000656E67746820746F6F206269670D0A0086
:103950001801244210B586B0044601210820FDF765
:1039600099FC01218804FDF7A2FC04208DF81700C2
:103970004002ADF8140003208DF8160005A9514847
:10398000FDF7CCF918208DF817004FF48060ADF8E2
:10399000140005A94B48FDF7C1F901940020ADF8CA
:1039A00010000C20ADF80E000020ADF80C00ADF8B2
:1039B0000A00ADF8080001A94348FEF720FC0121E8
:1039C0004148FEF7A8FC27208DF8000001208DF863
:1039D000030002208DF8010000208DF802006846E7
:1039E000FCF73FFD012240F225513748FEF79FFCCE
:1039F00006B010BD10B54FF41650FFF7ABFF10BD69
:103A000010B500240DE03148015D2F48FEF7F0FCB1
:103A100000BF40212C48FEF759FD0128F9D1601C58
:103A2000C4B2092CEFDB10BD70B5002440F2255163
:103A30002548FEF761FD002843D02348FEF7DCFC53
:103A4000C1B2234802780078401C214B18702148ED
:103A500081541846007802280FD11E480078FF28AC
:103A600003D11C484078862807D0002018490870E8
:103A7000184800210160416001721548007809284A
:103A80001FD1002012490870012505E01148405D52
:103A90002044C4B2681CC5B2082DF7DBE043C4B2B1
:103AA000601CC4B20B48007AA0420AD10024094825
:103AB000C178807801EB00200749086001200749A0
:103AC000087070BD000C014000480040CC0E010899
:103AD0003400002016060020DC8500206000002055
:103AE00008B501210802FDF7D5FB10208DF8030071
:103AF000C001ADF8000003208DF802006946764849
:103B0000FDF70CF94FF4FA6000F0EBFA08BD10B5C0
:103B10007148406820F470406F494860084640682A
:103B200040F44050486000206C490860142000F0C8
:103B3000D8FA01206A49C1F8AC011E2000F0ADFAA4
:103B400010BD10B500246448406820F470406249FC
:103B500048600846406840F40040486004E0601C4B
:103B6000C4B2012000F099FA5C488038006808B1BE
:103B7000642CF4DD642C01DD012010BD002404E080
:103B8000601CC4B2012000F088FA544880380068F4
:103B900008B9642CF4DD642C01DD0120EDE7002080
:103BA000EBE710B5002404E0601CC4B2012000F073
:103BB00074FA4A488038006808B1642CF4DB0024A9
:103BC00004E0601CC4B2012000F067FA434880386A
:103BD000006808B9642CF4DB1E2000F05EFA3F4850
:103BE0008038006808B1012010BD0020FCE770B5E6
:103BF0000024002507E06006040EFFF7D2FF2043F3
:103C0000C4B2681CC5B2082DF5DB204670BD2DE995
:103C1000F04786B081468A46FFF779FFFFF791FFAC
:103C2000002852D1002405E0FFF7E1FF04A9085560
:103C3000601CC4B2052CF7DB9DF810009DF8111034
:103C400008449DF8121008449DF8131008449DF88C
:103C5000141088423DD19DF811000BF063FA214AFF
:103C6000214BCDE900010BF071FA05460E469DF897
:103C700010000BF057FA2A463346CDE902010BF04B
:103C8000A9F907460BF074F9C9F800009DF8130074
:103C90000BF048FA134A144BCDE900010BF056FA29
:103CA00005460E469DF812000BF03CFA07462A46E0
:103CB00033460BF08FF9CDE902010BF059F9CAF840
:103CC000000001200949087003E0012006B0BDE8AA
:103CD000F0870020FAE7000000200140AC012442F8
:103CE00000002442FCA9F1D24D62503F6100002047
:103CF00010B54FF4A060FCF7AFFB00F0B9F9FEF788
:103D00003FFCFFF737F8FEF765FD4FF4E130FFF7B2
:103D10009CF9FEF761FC002000F027FA012000F07A
:103D200024FA09F077FCFFF765FEFFF7D9FE42F2AF
:103D3000273140F21F3000F01BFB10BD10B500F022
:103D400045FB10BD1CB500240AE00A2101EB04115B
:103D5000C8B2234601220021FEF769FF601CC4B2ED
:103D6000062CF2DB8948012110237E22CDE90010C8
:103D700000216E20FEF79CFF85A01023012219462A
:103D800000900020FEF7CDFE85A010230122202107
:103D900000900020FEF7C5FE85A0102301223021EF
:103DA00000900020FEF7BDFEFEF7DCFC1CBDF0B568
:103DB00091B0054682480078A84207D18148007832
:103DC00081490978C1F3001188420AD07C48057006
:103DD0007D480078C0F300107A490870FF207B49C5
:103DE000087015B1012D41D141E07948007878B1D2
:103DF00078480068042110230122CDE900101946FB
:103E00002820FEF7CAFEFEF7ADFC002070490870BE
:103E10007148007850B36F4948680BF07FFB064645
:103E200032460B466DA105A809F002FE6949886873
:103E30000BF074FB064632460B4668A103A809F056
:103E4000F7FD05A810230122202100902820FEF76D
:103E500068FE03A810230122302100902820FEF7DD
:103E600060FEFEF77FFC00205B49087047E0574882
:103E7000007855490978C1F3401188423ED0524834
:103E80000078C0F34010514908704F48007800F0A6
:103E9000200020B953A10CA809F05EFF0EE057489E
:103EA00000684468200EC4F30741E2B2C4F307235C
:103EB000CDE9001052A10CA809F0BAFD42480078E3
:103EC00000F0100020B153A107A809F045FF03E05E
:103ED00055A107A809F040FF0CA80C2301222021BE
:103EE00000900020FEF71DFE07A80C2301222C21C4
:103EF00000900020FEF715FEFEF734FC00BF00BF67
:103F000011B0F0BDFFF7F4FEFFF718FFFFF71AFF3F
:103F100001204A49086000204949C1F89401012163
:103F20008807FDF74BFE2FE046480078FFF73FFF7C
:103F30002548007800F0800060B12348007800F048
:103F4000100038B100F078FA1F48007820F08000A7
:103F50001D4908701C48007800F0400080B13AA16B
:103F60003B4809F0CBFF28B91748007840F0100013
:103F7000154908701448007820F040001249087074
:103F800006F029FB09F082FBCEE700008C0E010849
:103F9000434F323A2020202020202070706D0000F6
:103FA00054656D703A20202020202043200000001E
:103FB00048756D3A20202020202020252000000078
:103FC0003700002038000020340100203600002097
:103FD00060000020DC8500206100002025362E32A4
:103FE000660000004E4F20436F6E6E6563742E2E88
:103FF0002E2020202020202000000000380100205A
:10400000524D49503A25642E25642E25642E256490
:1040100000000000456E766972446174612055703D
:104020006C6F6164696E67004E4F2055706C6F61F4
:1040300064696E6720202020202020009481214286
:104040000000234235000020737461727400000088
:1040500042870020704700BFFEE700BFFEE700BFB9
:10406000FEE700BFFEE770477047704770470000EB
:1040700010B56FF00400FCF73EFA2C4800682C499C
:10408000B0FBF1F02B4908600846008880B24FF47D
:104090007A7148432849086010BD0146254A1268D4
:1040A0004A434FF0E0235A6100229A611A4612698E
:1040B00042F001021A6100BF4FF0E022106900F0E7
:1040C00001021AB100F48032002AF5D04FF0E0224C
:1040D000126922F001024FF0E0231A6100229A6176
:1040E00070470146144A12684A434FF0E0235A6170
:1040F00000229A611A46126942F001021A6100BF59
:104100004FF0E022106900F001021AB100F4803291
:10411000002AF5D04FF0E022126922F001024FF0A0
:10412000E0231A6100229A6170470000000000201D
:1041300000127A003C0000204000002070B50346C9
:104140000C4603E025781D705B1C641C1500A2F171
:104150000102F7D170BD30B5034601E019705B1C58
:104160001400A2F10102F9D130BD10B504467C491A
:1041700051F824207B4951F824000021FFF7EBFF80
:10418000794951F824104A007649083151F8240041
:104190000021FFF7E0FF012172481030015510BDEA
:1041A00010B501460023002208E06E48083050F8A0
:1041B000210030F8120000B15B1C521C6A4850F814
:1041C00021009042F1D864205843674C54F82140B4
:1041D000B0FBF4F0C0B210BD2DE9F04704460E4626
:1041E00000250027A9465F481030005D20B95D48D2
:1041F00008380168204688471EB94FF0FF30BDE8F7
:10420000F0875A4850F82400B6FBF0F7574850F8AA
:104210002400B6FBF0F100FB116000B17F1C524896
:1042200050F82400451E22E04E48083050F8240083
:1042300030F8150010B909F1010901E04FF000094B
:104240004F4513D14FF0000809E04648083050F8B8
:10425000240005EB080220F8127008F10108B845A7
:10426000F3D3424850F824006843C8E76D1E002D80
:10427000DADA4FF0FF30C2E770B504460E46314639
:104280002046FFF7A9FF0546681C08B9002070BD4D
:10429000344850F824002844F9E72DE9F041044659
:1042A0000E460027B8462F481030005D38B92D481B
:1042B00008380168204688470120BDE8F081284879
:1042C00050F82400B04219D9284850F82400B6FB11
:1042D000F0F72448083050F8240030F81780002503
:1042E00008E000211F48083050F824007A1920F80F
:1042F00012106D1C4545F4DB0020DEE70220DCE7F0
:1043000070B505460C4604B970BD164850F8250036
:10431000261A31462846FFF7C0FF00BFF4E72DE913
:10432000F04104460F46164631462046FFF754FF3B
:104330000546681C10B90020BDE8F081094951F814
:104340002410481932463946FFF7F8FE3946204610
:10435000FFF7D6FF034850F824002844ECE700009C
:10436000F00E01084C000020E00E0108E80E0108E4
:104370007FB505460C4601210846FCF798FFADF8CD
:104380000850ADF804400020ADF80A00ADF8060072
:1043900001A94FF08040FDF7B5F800214FF08040B3
:1043A000FDF70CFC012211469007FDF722FC1C20B2
:1043B0008DF8000001208DF803008DF80100062023
:1043C0008DF802006846FCF74CF87FBD70B5002000
:1043D0005B490860886048605A485BA10A8802808F
:1043E00089788170564859A1026856480A3009F008
:1043F0001FFB544856A206CAC0E905125049486836
:104400000BF08CF8044622460B4654A14D481E3052
:1044100009F00EFB4B4953A205CAC1E90A024849FB
:1044200088680BF07BF8044622460B464BA14548B2
:10443000323009F0FDFA70BD70B50C2000F04EFA74
:1044400004463F4841A102683E480A3009F0F0FAAC
:104450003B4948680BF062F805462A460B463FA1E7
:1044600038481E3009F0E4FA354988680BF056F8F0
:1044700005462A460B4639A13248323009F0D8FAAF
:1044800004B303223C21002000F0F6FEA0602D487A
:10449000A168486036480068606001202070354996
:1044A0003348006803F004F921463148006809F0F8
:1044B00056F9A06810B1A06800F05CFE204600F03C
:1044C00023F901E000BFFEE770BD10B501218807A8
:1044D000FDF73DFE01282DD127480078401C2649D4
:1044E000087017490831081FFFF791FB2249087827
:1044F000C11700EB91718910A0EB810149B9FFF759
:104500007FFA1E48006808B9012000E000201B491E
:104510000860194800780A2190FBF1F201FB1200B3
:1045200040B91748007840F0800015490870002015
:104530001149087001218807FDF71AFE10BD00001F
:10454000DC850020A0850020434F32002534640024
:1045500054656D70657261740000000025362E325E
:104560006600000048756D69646974790000000098
:1045700038010020AFD700086200002094012342D8
:104580003401002001460806000C40EA1120704763
:1045900000B502461046FFF7F5FF00BD01460806CC
:1045A00001F47F4240EA022001F47F0240EA122037
:1045B00040EA1160704700B503461846FFF7EEFF6A
:1045C00000BD10B500F079F800F068FB00F038FC91
:1045D00006F090F801F0E8FE05F0BEFF10BD000007
:1045E00070B5044600BFE4480068844207D200BFAB
:1045F000E2A3F322EAA1F0A009F00EFA00BF00BF87
:1046000000BFF8480068844207D300BFDBA3F42250
:10461000F5A1E9A009F000FA00BF00BF00BF2079B2
:1046200038B100BFD5A3F522F6A1E3A009F0F4F953
:1046300000BF00BF00BF2088B0F5205F07DD00BFCE
:10464000CEA3F822F6A1DCA009F0E6F900BF00BF76
:104650002088C94909684518AC4215D0287998B90D
:10466000E048006885420FD0F8480068A84201D1B0
:10467000F648046028882080BF480088201A2988CE
:10468000BD4A1268114448806088BB4909684618D1
:10469000A64211D0307978B9EC480068A04201D127
:1046A000EA48066020883080B3480088301A2188A4
:1046B000B14A12681144488070BD00BF00BFE44990
:1046C0000968C91C21F00301AB4A11601146086852
:1046D0004FF4205101800021418001711146096889
:1046E00001F52051BF4A11600121126811714FF488
:1046F0002051BC4A12681180BA4A126851809E4902
:104700000968D24A1160704770B5044614B900BFF9
:1047100000BF70BD00BF04F0030040B100BF97A30D
:104720004FF4A172CBA1A4A009F076F900BF00BF9D
:1047300000BF91480068844203D3AA4800688442BD
:1047400008D300BF8DA34FF4A272CBA19AA009F0A9
:1047500063F900BF00BF88480068844203D3A148C2
:104760000068844202D300BF00BFD2E7A4F108056D
:1047700000BF287940B900BF80A340F25512C4A100
:104780008DA009F049F900BF00BF00202871AF4893
:104790000068854201D2AD4805602846FFF720FF3A
:1047A00000BFB6E72DE9F04780460D46E81C20F033
:1047B000030085B20C2D00DA0C25B5F5205F02DD73
:1047C0000020BDE8F08700BF6B480068804503D338
:1047D00084480068804508D300BF68A34FF4C472C2
:1047E000B0A175A009F018F900BF00BF62480068C9
:1047F000804503D37B480068804503D300BF00BFDA
:104800004046DEE7A8F108075B480088381A1FFA1F
:1048100080F93888A0EB090008381FFA80FA00BF39
:10482000554508DD00BF55A34FF4CD72A3A162A08A
:1048300009F0F2F800BF00BF554501DD0020C0E7D8
:10484000554501D14046BCE738884B4909684418B2
:10485000207900BB208809F1080129448EB27B49E8
:104860000968A14204D1444909683144774A11607A
:10487000414909688C19002121712080A4F8029017
:104880003E802188B1F5205F04D021883A4A126821
:1048900011444E8020E005F1140050451CD809F168
:1048A0000800284486B234480068841967480068C4
:1048B000844201D26548046000202071388820803D
:1048C000A4F802903E802088B0F5205F04D02088B4
:1048D0002949096808444680404672E72DE9F047B7
:1048E000054615B90020BDE8F087E81C20F003005C
:1048F00085B20C2D00DA0C25B5F5205F01DD002016
:10490000F1E7524800881C490988401A86B250E1F4
:10491000194800688419207900282AD1218806F1D5
:104920000800081AA84224D3218806F10800091AB1
:1049300005F1140081421DD306F1080028441FFA36
:1049400080F80D48006800EB0807002038712088C7
:1049500038807E80A4F80080012020713888B0F56E
:10496000205F05D03888044909680844A0F802800F
:10497000B6E01BE1B2E00000680000202E2E5C4C87
:104980005749505C6C7769702D312E342E315C7331
:1049900072635C636F72655C6D656D2E6300000011
:1049A000706C75675F686F6C65733A206D656D201C
:1049B0003E3D2072616D0000417373657274696FD2
:1049C0006E2022257322206661696C656420617403
:1049D000206C696E6520256420696E2025730D0AA0
:1049E000000000006C000020706C75675F686F6CE1
:1049F00065733A206D656D203C2072616D5F656E58
:104A000064000000706C75675F686F6C65733A20B6
:104A10006D656D2D3E75736564203D3D2030000051
:104A2000706C75675F686F6C65733A206D656D2D8E
:104A30003E6E657874203C3D204D454D5F53495A8C
:104A4000455F414C49474E4544000000700000203E
:104A5000640000206D656D5F667265653A20736164
:104A60006E69747920636865636B20616C69676E39
:104A70006D656E74000000006D656D5F6672656542
:104A80003A206C6567616C206D656D6F727900000E
:104A90006D656D5F667265653A206D656D2D3E755D
:104AA000736564006D656D5F7472696D3A206C6545
:104AB00067616C206D656D6F727900006D656D5F6B
:104AC0007472696D2063616E206F6E6C79207368FB
:104AD00072696E6B206D656D6F72790001202071B7
:104AE0004148006884422AD13F48D0F8009005E050
:104AF000B9F800003D49096800EB010999F8040084
:104B000018B13B4800688145F2D13748C0F80090A1
:104B100000BF00683649096888420ED032480068F4
:104B2000007950B100BFAFF2AC134FF4197231A14C
:104B3000AFF27C1008F070FF00BF00BF00BF00BFE5
:104B400004F1080028442A49096888420AD900BFAC
:104B5000AFF2D8134FF41A722DA1AFF2A41008F0DF
:104B60005BFF00BF00BF00BF04F0030050B100BFF7
:104B7000AFF2F81340F26A2231A1AFF2C41008F08C
:104B80004BFF00BF00BF00BF04F0030050B100BFE7
:104B9000AFF218234FF41B7235A1AFF2E41008F006
:104BA0003BFF00BF00BF04F108009CE60F4800680F
:104BB000865BC5F52050B0423FF7AAAE00BF00BFEC
:104BC000002090E670B504460D4604FB05F188B25E
:104BD000FFF784FE064626B104FB05F1304609F0D6
:104BE00043F9304670BD00007000002068000020CE
:104BF0006C0000206D656D5F6D616C6C6F633A20B9
:104C0000216C667265652D3E757365640000000059
:104C10006D656D5F6D616C6C6F633A20616C6C6F7C
:104C20006361746564206D656D6F7279206E6F7459
:104C30002061626F76652072616D5F656E642E0023
:104C40006D656D5F6D616C6C6F633A20616C6C6F4C
:104C50006361746564206D656D6F72792070726F29
:104C60007065726C7920616C69676E65642E0000F6
:104C70006D656D5F6D616C6C6F633A2073616E6919
:104C8000747920636865636B20616C69676E6D651C
:104C90006E740000002044F26370704710B500206D
:104CA00001E0431C98B20A28FBDB344B1B68DB1C79
:104CB00023F00301002019E00023314C44F8203098
:104CC00000220CE02E4B53F820300B602C4B43F8A5
:104CD00020102C4B33F810301944531C9AB22A4B35
:104CE00033F810309342EDDC431C98B20A28E3DB22
:104CF00010BD70B5054600BF0A2D04DB23A008F0E7
:104D00008BFE002070BD00BF1D4850F82540002CD0
:104D100013D01B49206841F8250000BF04F00300B0
:104D2000002808D000BF21A340F2AD1228A131A075
:104D300008F072FE00BF00BF01E000BF00BF2046C8
:104D4000E0E770B505460C4604B970BD00BF04F03D
:104D5000030040B100BF15A340F2C91230A125A045
:104D600008F05AFE00BF00BF2646054850F825004F
:104D70003060034840F8256000BFE6E79C00002053
:104D8000E8850020F80E01080C0F01086D656D70B4
:104D90005F6D616C6C6F633A2074797065203C20A4
:104DA0004D454D505F4D4158000000002E2E5C4C8B
:104DB0005749505C6C7769702D312E342E315C73FD
:104DC00072635C636F72655C6D656D702E6300006D
:104DD0006D656D705F6D616C6C6F633A206D656DB4
:104DE000702070726F7065726C7920616C69676E8B
:104DF00065640000417373657274696F6E202225CB
:104E00007322206661696C6564206174206C696E30
:104E10006520256420696E2025730D0A00000000BE
:104E20006D656D705F667265653A206D656D2070A9
:104E3000726F7065726C7920616C69676E65640071
:104E4000704709B9002200E00A68C26000BF00BFD5
:104E5000704709B9002200E00A68826000BF00BF05
:104E600070472DE9F04107460C46002C2ED02068F3
:104E70007968884201D1012000E0002030BB00BFEA
:104E800000BF9D4806680DE030687968884208D107
:104E9000D6F80C8000BF00BF304602F025F9464628
:104EA00000E0F668002EEFD1944805680CE055B19B
:104EB000286840B128687968884204D10CB900207C
:104EC00000E020682860ED68002DF0D10CB90020CA
:104ED00000E02068786000BF00BFBDE8F0812DE9E8
:104EE000F04106460F4614461D4639463046FFF748
:104EF000B8FF21463046FFF7ACFF29463046FFF7A2
:104F0000A0FFBDE8F0812DE9F04704460E461746A4
:104F10009846DDE9095ADDF8209000BF3DB900BF91
:104F200077A38F227FA185A008F076FD00BF00BF88
:104F300000206060A060E06084F82900C4F81C9044
:104F40008948007884F82C0087480078401C8649FE
:104F50000870C4F810A043463A4631462046FFF791
:104F6000BEFF2046A84710B10020BDE8F0877F486B
:104F7000006820607D48046000BF00BF00BF00BF24
:104F800000BF00BF00BF00BF00BF00BF00BF00BF29
:104F900000BF00BF2046E8E77549086000BF00BFBA
:104FA000704710B5044694F8290000F0010060B184
:104FB00014F8290F20F00100207014F8290900F0DE
:104FC000200010B1204607F08CFD10BD10B504463E
:104FD00004B910BD94F8290000F0010010B120467A
:104FE000FFF7DFFF61480068A04203D15F492068F6
:104FF00008600FE05D49086806E00168A14202D13F
:105000002168016002E000680028F6D100BF00B905
:10501000DFE700BF56480068A04202D10020FFF73A
:10502000BBFF00BF00BF00BFD3E710B502460AB9FF
:10503000002010BD90783038C3B24C48016812E0AF
:1050400091F82C0098420DD1107891F82A40A04296
:1050500008D154782B20405C844203D100BF00BFAC
:105060000846E6E709680029EAD100BF00BF002032
:10507000DFE710B5044694F8290000F0010090B96C
:1050800014F8290F40F00100207014F8290900F0ED
:10509000100040B194F8290000F0200018B1211D43
:1050A000204607F09CFE10BD10B5044694F8290078
:1050B00000F0100090B914F8290F40F01000207093
:1050C00014F8290900F0010040B194F8290000F01B
:1050D000200018B1211D204607F081FE10BD90F878
:1050E000291001F0100129B190F8291021F01001C8
:1050F00080F8291070470000C0000020BC0000208C
:105100002E2E5C4C5749505C6C7769702D312E34D3
:105110002E315C7372635C636F72655C6E6574697B
:10512000662E63004E6F20696E69742066756E632B
:1051300074696F6E20676976656E000041737365F0
:105140007274696F6E2022257322206661696C6516
:1051500064206174206C696E6520256420696E206E
:1051600025730D0A00000000A8000020A000002008
:10517000A40000202DE9F047044684B900BF44B9DB
:1051800000BFEDA340F27122F4A1F7A008F044FCA7
:1051900000BF00BF00BF00BF0020BDE8F08700BF18
:1051A00000BF00BF207B88B1207B01280ED0207B70
:1051B00002280BD0207B032808D000BFDEA340F2DA
:1051C0007B22F4A1E8A008F027FC00BF00BF002666
:1051D0004EE000BFE089002808DC00BFD6A340F203
:1051E0008A22F2A1E0A008F017FC00BF00BFE0890E
:1051F000401E1FFA80F8A4F80E80B8F1000F33D1DA
:10520000276800BF00BF257B607B00F002000028FC
:1052100013D0A14600BFD9F8100040B900BFC6A303
:105220004FF42672E7A1D0A008F0F6FB00BF00BF44
:105230002046D9F81010884712E0032D04D12146EA
:105240000920FFF77EFD0BE0012D01D0022D04D1D6
:1052500021460820FFF775FD02E02046FFF754FACB
:10526000701CC6B23C4602E000BF00BF002400BF75
:10527000002CAED1304690E72DE9F05F83460F4613
:10528000914600BF00BFBBF1000F09D0BBF1010F79
:1052900008D0BBF1020F07D0BBF1030F08D105E026
:1052A000362612E0222610E00E260EE000260CE044
:1052B00000BF00BFA0A3E822CBA1ABA008F0ACFBCD
:1052C00000BF00BF0020BDE8F09F00BFB9F1000F94
:1052D00072D0B9F1010F70D0B9F1020F6ED0B9F1EF
:1052E000030F6CD10920FFF704FD044600BF00BF87
:1052F0000CB90020E7E784F80C900020206006F14C
:1053000010002044C01C20F00300606000BF207922
:1053100000F0030038B100BF87A3FA22B9A192A020
:1053200008F07AFB00BF00BF2781F01C20F00300CB
:1053300040F2DC51081AB84201DD384605E0F01CA5
:1053400020F0030040F2DC51081A608100BF61893F
:105350006068014404F2EC50814208D900BF76A392
:105360004FF48072B3A180A008F056FB00BF00BFCD
:1053700000BFF01C20F0030040F2DC51081A0028A6
:1053800008DC00BF6CA340F20312B7A176A008F0BE
:1053900043FB00BF00BF0120E081A2466089A7EB6C
:1053A00000085BE00920FFF7A4FC054645B920464C
:1053B000FFF7E0FE002086E754E07FE07FE08FE02B
:1053C00085F80C90002068732860CAF8005000BF70
:1053D0004FF6FF70804508DB00BF57A34FF48F7274
:1053E000AEA161A008F018FB00BF00BFA5F80880BF
:1053F0001FFA88F040F2DC51884202DA1FFA88F086
:1054000001E040F2DC50688105F11000686000BFE7
:10541000287900F0030040B100BF47A340F22312F7
:10542000A3A151A008F0F8FA00BF00BF00BF618936
:105430006068014404F2EC50814208D900BF3EA3E9
:1054400040F225127BA148A008F0E6FA00BF00BF99
:105450000120E8816889A8EB0008AA46B8F1000F8E
:10546000A0DC4AE006F1130121F00302F91C21F04F
:105470000301114488B2FFF731FA04460CB9002049
:1054800021E704F110003044C01C20F003006060EC
:10549000278167810020206084F80C9000BF20796C
:1054A00000F0030040B100BF23A34FF49F728CA112
:1054B0002DA008F0B1FA00BF00BF1EE000BF082019
:1054C000FFF717FC04461CB900BF00BF0020FAE636
:1054D0000020606027816781206084F80C900CE0D8
:1054E00000BF00BF14A34FF4AA7288A11EA008F049
:1054F00093FA00BF00BF0020E5E600BF0120E08175
:105500000020607300BF00BF2046DCE62DE9F047B5
:1055100007460E4690461C46DDE9089A00BF00BFCC
:1055200037B1012F05D0022F04D0032F03D101E1A1
:10553000FAE0FBE0FCE0FFE02E2E5C4C5749505CAB
:105540006C7769702D312E342E315C7372635C631D
:105550006F72655C706275662E6300007020213D7D
:10556000204E554C4C000000417373657274696F96
:105570006E2022257322206661696C656420617447
:10558000206C696E6520256420696E2025730D0AE4
:1055900000000000706275665F667265653A207390
:1055A000616E652074797065000000007062756638
:1055B0005F667265653A20702D3E726566203E20FA
:1055C0003000000070632D3E637573746F6D5F660D
:1055D0007265655F66756E6374696F6E20213D202C
:1055E0004E554C4C00000000706275665F616C6C3B
:1055F0006F633A206261642070627566206C617925
:1056000065720000706275665F616C6C6F633A2052
:105610007062756620702D3E7061796C6F616420D8
:1056200070726F7065726C7920616C69676E656409
:1056300000000000636865636B20702D3E70617927
:105640006C6F6164202B20702D3E6C656E20646F42
:105650006573206E6F74206F766572666C6F77204D
:105660007062756600000000504255465F504F4F13
:105670004C5F42554653495A45206D7573742062FC
:105680006520626967676572207468616E204D45A8
:105690004D5F414C49474E4D454E540072656D5F1C
:1056A0006C656E203C206D61785F7531365F7400EB
:1056B000706275665F616C6C6F633A2070627566CC
:1056C00020712D3E7061796C6F61642070726F7013
:1056D00065726C7920616C69676E6564000000001A
:1056E000706275665F616C6C6F633A20706275669C
:1056F0002D3E7061796C6F61642070726F7065729D
:105700006C7920616C69676E656400007062756613
:105710005F616C6C6F633A206572726F6E656F7556
:105720007320747970650000362515E0222513E09A
:105730000E2511E000250FE000BF00BFAFF20823E7
:1057400040F28712FEA1AFF2E01008F065F900BF49
:1057500000BF0020BDE8F08700BFE81C20F0030078
:105760003044504503DD00BF00BF0020F2E70020B9
:105770002060B9F1000F05D0E81C20F00300484478
:10578000606001E000206060022060732681668115
:1057900084F80C800120E0812046DBE72DE9F04110
:1057A00005460F4600BF55B900BFAFF274234FF452
:1057B000DA72ECA1AFF2502008F02EF900BF00BF62
:1057C00000BF287B032812D0287B01280FD0287B1C
:1057D00068B1287B02280AD000BFAFF2A42340F2B0
:1057E000B512E6A1AFF2802008F016F900BF00BFA5
:1057F0002889B84201DCBDE8F0812889A7EB0008C0
:105800003E462C4625E06089301A86B200BF4FF62E
:10581000FF7080450ADB00BFAFF2E4234FF4E6726D
:10582000DDA1AFF2BC2008F0F7F800BF00BF20896F
:1058300040442081246800BF54B900BFAFF2083350
:105840004FF4E872D9A1AFF2E02008F0E5F800BF0C
:1058500000BF6089B042D6DB207B002818D1608968
:10586000B04215D0A088001B304481B22046FEF71C
:1058700099FF044600BF54B900BFAFF244334FF460
:10588000ED72D0A1AFF2203008F0C6F800BF00BF23
:10589000668160892081206810B12068FFF76AFC6A
:1058A0000020206000BFA6E72DE9F04104460D4628
:1058B00000BF5CB900BFAFF2803340F20522AFF207
:1058C0006431AFF25C3008F0A7F800BF00BF05B14B
:1058D00014B90020BDE8F081002D0BDA684287B2D0
:1058E00000BF6089B84204DABDA008F095F8012035
:1058F000F0E700E0AFB2267BD4F804800EB1032EAF
:105900000DD16068401B606004F110006168814245
:1059100023D200BF00BFC4F804800120DAE7022EC2
:1059200001D0012E0AD1002D06DA6089B84203DBCE
:105930006068401B606010E00120CBE700BF00BF43
:10594000AFF20C4340F23B22ADA1AFF2E43008F0DD
:1059500063F800BF00BF0120BCE760892844608174
:1059600020892844208100BF00BF0020B2E7014603
:10597000002002E0421CD0B209680029FAD1704729
:1059800010B1C189491CC181704770B506460D46EA
:1059900000BF06B11DB99EA008F03EF870BD00BF63
:1059A000344604E02089298908442081246820683D
:1059B0000028F7D100BF2089618988420AD000BF42
:1059C000AFF28C4340F2F6229FA1AFF2644008F0A0
:1059D00023F800BF00BF00BF206850B100BFAFF286
:1059E000A84340F2F722A4A1AFF2844008F014F8D3
:1059F00000BF00BF2089298908442081256000BF9D
:105A0000CCE770B505460C4621462846FFF7BDFF9A
:105A10002046FFF7B5FF00BF00BF70BD70B504465C
:105A200001262568002D24D000BF20896189401AF5
:105A3000298988420AD000BFAFF204534FF44B7259
:105A400091A1AFF2DC4007F0E7FF00BF00BF208963
:105A50006189401A2881002020606089208100BF70
:105A600000BF2846FFF786FB0646002E01DD00BF7B
:105A700000BF00BF2089618988420AD000BFAFF211
:105A8000485340F23D3289A1AFF2245007F0C4FFE1
:105A900000BF00BF002E01DD002070BD2846FCE7DE
:105AA0002DE9F04105460C460026002700BF00BF47
:105AB00000BF25B11CB128892189884206DA81A05E
:105AC00007F0AAFF6FF00D00BDE8F08100BF00BF36
:105AD0006889801B6189C91B884204DB6089C01BFF
